{
  "contractName": "ConsumerRole",
  "abi": [
    {
      "inputs": [],
      "stateMutability": "nonpayable",
      "type": "constructor"
    },
    {
      "inputs": [
        {
          "internalType": "address",
          "name": "account",
          "type": "address"
        }
      ],
      "name": "isConsumer",
      "outputs": [
        {
          "internalType": "bool",
          "name": "",
          "type": "bool"
        }
      ],
      "stateMutability": "view",
      "type": "function",
      "constant": true
    },
    {
      "inputs": [
        {
          "internalType": "address",
          "name": "account",
          "type": "address"
        }
      ],
      "name": "addConsumer",
      "outputs": [],
      "stateMutability": "nonpayable",
      "type": "function"
    },
    {
      "inputs": [],
      "name": "renounceConsumer",
      "outputs": [],
      "stateMutability": "nonpayable",
      "type": "function"
    }
  ],
  "bytecode": "0x608060405234801561001057600080fd5b5061019b806100206000396000f3fe608060405234801561001057600080fd5b50600436106100415760003560e01c8063112940f91461004657806361e6982d14610062578063834ff7391461006c575b600080fd5b610060600480360381019061005b91906100bd565b61009c565b005b61006a61009f565b005b610086600480360381019061008191906100bd565b6100a1565b60405161009391906100f5565b60405180910390f35b50565b565b6000919050565b6000813590506100b78161014e565b92915050565b6000602082840312156100cf57600080fd5b60006100dd848285016100a8565b91505092915050565b6100ef81610122565b82525050565b600060208201905061010a60008301846100e6565b92915050565b600061011b8261012e565b9050919050565b60008115159050919050565b600073ffffffffffffffffffffffffffffffffffffffff82169050919050565b61015781610110565b811461016257600080fd5b5056fea2646970667358221220e03b3d1fc0195c0bc1a837155a453fb4f2efa8a9bb75fba67943e2a6f1efa3ef64736f6c63430008000033",
  "immutableReferences": {},
  "source": "// SPDX-License-Identifier: MIT\npragma solidity ^0.8.0;\n\n// Import the library 'Roles'\nimport \"./Roles.sol\";\n\n// Define a contract 'ConsumerRole' to manage this role - add, remove, check\ncontract ConsumerRole {\n\n  // Define 2 events, one for Adding, and other for Removing\n\n  // Define a struct 'consumers' by inheriting from 'Roles' library, struct Role\n\n  // In the constructor make the address that deploys this contract the 1st consumer\n  constructor() {\n    \n  }\n\n  // Define a modifier that checks to see if msg.sender has the appropriate role\n  modifier onlyConsumer() {\n    \n    _;\n  }\n\n  // Define a function 'isConsumer' to check this role\n  function isConsumer(address account) public view returns (bool) {\n    \n  }\n\n  // Define a function 'addConsumer' that adds this role\n  function addConsumer(address account) public onlyConsumer {\n    \n  }\n\n  // Define a function 'renounceConsumer' to renounce this role\n  function renounceConsumer() public {\n    \n  }\n\n  // Define an internal function '_addConsumer' to add this role, called by 'addConsumer'\n  function _addConsumer(address account) internal {\n    \n  }\n\n  // Define an internal function '_removeConsumer' to remove this role, called by 'removeConsumer'\n  function _removeConsumer(address account) internal {\n    \n  }\n}",
  "sourcePath": "/Users/toddskinner/BlockchainCourse/supplyChainDapp/project-6/contracts/coffeeaccesscontrol/ConsumerRole.sol",
  "compiler": {
    "name": "solc",
    "version": "0.8.0+commit.c7dfd78e.Emscripten.clang"
  },
  "schemaVersion": "3.4.3",
  "updatedAt": "2021-12-09T22:41:53.954Z",
  "networkType": "ethereum",
  "devdoc": {
    "kind": "dev",
    "methods": {},
    "version": 1
  },
  "userdoc": {
    "kind": "user",
    "methods": {},
    "version": 1
  }
}